{
  "contractName": "Lottery",
  "abi": [
    {
      "inputs": [],
      "stateMutability": "nonpayable",
      "type": "constructor"
    },
    {
      "inputs": [
        {
          "internalType": "uint256",
          "name": "",
          "type": "uint256"
        }
      ],
      "name": "lotteryHistory",
      "outputs": [
        {
          "internalType": "address payable",
          "name": "",
          "type": "address"
        }
      ],
      "stateMutability": "view",
      "type": "function"
    },
    {
      "inputs": [],
      "name": "lotteryId",
      "outputs": [
        {
          "internalType": "uint256",
          "name": "",
          "type": "uint256"
        }
      ],
      "stateMutability": "view",
      "type": "function"
    },
    {
      "inputs": [],
      "name": "owner",
      "outputs": [
        {
          "internalType": "address payable",
          "name": "",
          "type": "address"
        }
      ],
      "stateMutability": "view",
      "type": "function"
    },
    {
      "inputs": [
        {
          "internalType": "uint256",
          "name": "",
          "type": "uint256"
        }
      ],
      "name": "players",
      "outputs": [
        {
          "internalType": "address payable",
          "name": "",
          "type": "address"
        }
      ],
      "stateMutability": "view",
      "type": "function"
    },
    {
      "inputs": [],
      "name": "getBalance",
      "outputs": [
        {
          "internalType": "uint256",
          "name": "",
          "type": "uint256"
        }
      ],
      "stateMutability": "view",
      "type": "function"
    },
    {
      "inputs": [],
      "name": "getPlayers",
      "outputs": [
        {
          "internalType": "address payable[]",
          "name": "",
          "type": "address[]"
        }
      ],
      "stateMutability": "view",
      "type": "function"
    },
    {
      "inputs": [],
      "name": "enter",
      "outputs": [],
      "stateMutability": "payable",
      "type": "function"
    },
    {
      "inputs": [],
      "name": "getRandomNumber",
      "outputs": [
        {
          "internalType": "uint256",
          "name": "",
          "type": "uint256"
        }
      ],
      "stateMutability": "view",
      "type": "function"
    },
    {
      "inputs": [],
      "name": "pickWinner",
      "outputs": [],
      "stateMutability": "nonpayable",
      "type": "function"
    },
    {
      "inputs": [
        {
          "internalType": "uint256",
          "name": "lottery",
          "type": "uint256"
        }
      ],
      "name": "getWinnerByLottery",
      "outputs": [
        {
          "internalType": "address payable",
          "name": "",
          "type": "address"
        }
      ],
      "stateMutability": "view",
      "type": "function"
    }
  ],
  "bytecode": "0x608060405234801561001057600080fd5b50336000806101000a81548173ffffffffffffffffffffffffffffffffffffffff021916908373ffffffffffffffffffffffffffffffffffffffff1602179055506001600281905550610cde806100686000396000f3fe6080604052600436106100915760003560e01c80638da5cb5b116100595780638da5cb5b1461017d578063dbdff2c1146101a8578063e580f47b146101d3578063e97dcb62146101fe578063f71d96cb1461020857610091565b806312065fe014610096578063281d098d146100c15780635d495aea146100fe5780636d6fe230146101155780638b5b9ccc14610152575b600080fd5b3480156100a257600080fd5b506100ab610245565b6040516100b89190610819565b60405180910390f35b3480156100cd57600080fd5b506100e860048036038101906100e39190610865565b61024d565b6040516100f591906108d3565b60405180910390f35b34801561010a57600080fd5b5061011361028a565b005b34801561012157600080fd5b5061013c60048036038101906101379190610865565b6104c6565b60405161014991906108d3565b60405180910390f35b34801561015e57600080fd5b506101676104f9565b60405161017491906109ac565b60405180910390f35b34801561018957600080fd5b50610192610587565b60405161019f91906108d3565b60405180910390f35b3480156101b457600080fd5b506101bd6105ab565b6040516101ca9190610819565b60405180910390f35b3480156101df57600080fd5b506101e86105ff565b6040516101f59190610819565b60405180910390f35b610206610605565b005b34801561021457600080fd5b5061022f600480360381019061022a9190610865565b61071a565b60405161023c91906108d3565b60405180910390f35b600047905090565b60006003600083815260200190815260200160002060009054906101000a900473ffffffffffffffffffffffffffffffffffffffff169050919050565b60008054906101000a900473ffffffffffffffffffffffffffffffffffffffff1673ffffffffffffffffffffffffffffffffffffffff163373ffffffffffffffffffffffffffffffffffffffff1614610318576040517f08c379a000000000000000000000000000000000000000000000000000000000815260040161030f90610a51565b60405180910390fd5b60006001805490506103286105ab565b6103329190610aa0565b90506001818154811061034857610347610ad1565b5b9060005260206000200160009054906101000a900473ffffffffffffffffffffffffffffffffffffffff1673ffffffffffffffffffffffffffffffffffffffff166108fc479081150290604051600060405180830381858888f193505050501580156103b8573d6000803e3d6000fd5b50600181815481106103cd576103cc610ad1565b5b9060005260206000200160009054906101000a900473ffffffffffffffffffffffffffffffffffffffff1660036000600254815260200190815260200160002060006101000a81548173ffffffffffffffffffffffffffffffffffffffff021916908373ffffffffffffffffffffffffffffffffffffffff1602179055506002600081548092919061045e90610b2f565b9190505550600067ffffffffffffffff81111561047e5761047d610b78565b5b6040519080825280602002602001820160405280156104ac5781602001602082028036833780820191505090505b50600190805190602001906104c2929190610759565b5050565b60036020528060005260406000206000915054906101000a900473ffffffffffffffffffffffffffffffffffffffff1681565b6060600180548060200260200160405190810160405280929190818152602001828054801561057d57602002820191906000526020600020905b8160009054906101000a900473ffffffffffffffffffffffffffffffffffffffff1673ffffffffffffffffffffffffffffffffffffffff1681526020019060010190808311610533575b5050505050905090565b60008054906101000a900473ffffffffffffffffffffffffffffffffffffffff1681565b60008060009054906101000a900473ffffffffffffffffffffffffffffffffffffffff16426040516020016105e1929190610c10565b6040516020818303038152906040528051906020012060001c905090565b60025481565b662386f26fc10000341161064e576040517f08c379a000000000000000000000000000000000000000000000000000000000815260040161064590610c88565b60405180910390fd5b6001339080600181540180825580915050600190039060005260206000200160009091909190916101000a81548173ffffffffffffffffffffffffffffffffffffffff021916908373ffffffffffffffffffffffffffffffffffffffff16021790555060008054906101000a900473ffffffffffffffffffffffffffffffffffffffff1673ffffffffffffffffffffffffffffffffffffffff166108fc349081150290604051600060405180830381858888f19350505050158015610717573d6000803e3d6000fd5b50565b6001818154811061072a57600080fd5b906000526020600020016000915054906101000a900473ffffffffffffffffffffffffffffffffffffffff1681565b8280548282559060005260206000209081019282156107d2579160200282015b828111156107d15782518260006101000a81548173ffffffffffffffffffffffffffffffffffffffff021916908373ffffffffffffffffffffffffffffffffffffffff16021790555091602001919060010190610779565b5b5090506107df91906107e3565b5090565b5b808211156107fc5760008160009055506001016107e4565b5090565b6000819050919050565b61081381610800565b82525050565b600060208201905061082e600083018461080a565b92915050565b600080fd5b61084281610800565b811461084d57600080fd5b50565b60008135905061085f81610839565b92915050565b60006020828403121561087b5761087a610834565b5b600061088984828501610850565b91505092915050565b600073ffffffffffffffffffffffffffffffffffffffff82169050919050565b60006108bd82610892565b9050919050565b6108cd816108b2565b82525050565b60006020820190506108e860008301846108c4565b92915050565b600081519050919050565b600082825260208201905092915050565b6000819050602082019050919050565b610923816108b2565b82525050565b6000610935838361091a565b60208301905092915050565b6000602082019050919050565b6000610959826108ee565b61096381856108f9565b935061096e8361090a565b8060005b8381101561099f5781516109868882610929565b975061099183610941565b925050600181019050610972565b5085935050505092915050565b600060208201905081810360008301526109c6818461094e565b905092915050565b600082825260208201905092915050565b7f4f6e6c792074686520636f6e7472616374206f776e65722063616e2063616c6c60008201527f2074686973000000000000000000000000000000000000000000000000000000602082015250565b6000610a3b6025836109ce565b9150610a46826109df565b604082019050919050565b60006020820190508181036000830152610a6a81610a2e565b9050919050565b7f4e487b7100000000000000000000000000000000000000000000000000000000600052601260045260246000fd5b6000610aab82610800565b9150610ab683610800565b925082610ac657610ac5610a71565b5b828206905092915050565b7f4e487b7100000000000000000000000000000000000000000000000000000000600052603260045260246000fd5b7f4e487b7100000000000000000000000000000000000000000000000000000000600052601160045260246000fd5b6000610b3a82610800565b91507fffffffffffffffffffffffffffffffffffffffffffffffffffffffffffffffff821415610b6d57610b6c610b00565b5b600182019050919050565b7f4e487b7100000000000000000000000000000000000000000000000000000000600052604160045260246000fd5b60008160601b9050919050565b6000610bbf82610ba7565b9050919050565b6000610bd182610bb4565b9050919050565b610be9610be4826108b2565b610bc6565b82525050565b6000819050919050565b610c0a610c0582610800565b610bef565b82525050565b6000610c1c8285610bd8565b601482019150610c2c8284610bf9565b6020820191508190509392505050565b7f4d696e696d756d20656e747279206665653a20302e3031206574686572000000600082015250565b6000610c72601d836109ce565b9150610c7d82610c3c565b602082019050919050565b60006020820190508181036000830152610ca181610c65565b905091905056fea26469706673582212201948b206e95d87839a5491d5cb30bbacccfb299c91eea24a3814c8a905b2be3b64736f6c634300080b0033",
  "immutableReferences": {},
  "source": "// SPDX-License-Identifier: MIT\npragma solidity ^0.8.11;\n\n/**\n * @title Lottery\n * @dev A simple decentralized lottery smart contract.\n */\ncontract Lottery {\n    address payable public  owner;                     // Address of the contract owner\n    address payable[] public players;          // Array of addresses who entered the lottery\n    uint256 public lotteryId;                 // Current lottery ID\n    mapping (uint256 => address payable) public lotteryHistory; // Mapping of lottery ID to winner's address\n\n    /**\n     * @dev Constructor initializes the contract with the contract owner and sets the initial lottery ID.\n     */\n    constructor() {\n        owner = payable(msg.sender);\n        lotteryId = 1;\n    }\n\n    /**\n     * @dev Get the balance of the contract in ether.\n     * @return The balance of the contract.\n     */\n    function getBalance() public view returns (uint256) {\n        return address(this).balance;\n    }\n\n    /**\n     * @dev Get the list of players who entered the current lottery.\n     * @return An array of addresses representing the players.\n     */\n    function getPlayers() public view returns (address payable[] memory) {\n        return players;\n    }\n\n    /**\n     * @dev Enter the lottery by sending a minimum value of 0.01 ether.\n     */\n    function enter() public payable {\n        require(msg.value > 0.01 ether, \"Minimum entry fee: 0.01 ether\");\n        players.push(payable(msg.sender));\n        owner.transfer(msg.value);\n    }\n\n    /**\n     * @dev Generate a pseudo-random number based on the owner's address and current timestamp.\n     * @return A pseudo-random number.\n     */\n    function getRandomNumber() public view returns (uint256) {\n        return uint256(keccak256(abi.encodePacked(owner, block.timestamp)));\n    }\n\n    /**\n     * @dev Pick a winner from the list of players and transfer the contract's balance to them.\n     * Only the contract owner can call this function.\n     */\n    function pickWinner() public onlyOwner {\n        uint256 index = getRandomNumber() % players.length;\n        players[index].transfer(address(this).balance);\n        lotteryHistory[lotteryId] = players[index];\n        lotteryId++;\n        players = new address payable[](0);\n    }\n\n    /**\n     * @dev Get the winner's address for a specific lottery ID.\n     * @param lottery The lottery ID to query.\n     * @return The winner's address for the given lottery.\n     */\n    function getWinnerByLottery(uint256 lottery) public view returns (address payable) {\n        return lotteryHistory[lottery];\n    }\n\n    /**\n     * @dev Modifier to ensure that only the contract owner can call certain functions.\n     */\n    modifier onlyOwner() {\n        require(msg.sender == owner, \"Only the contract owner can call this\");\n        _;\n    }\n}\n",
  "sourcePath": "/Users/sujoynath/Desktop/Programming/Solidity/Lottery/contracts/Lottery.sol",
  "compiler": {
    "name": "solc",
    "version": "0.8.11+commit.d7f03943.Emscripten.clang"
  },
  "schemaVersion": "3.4.14",
  "updatedAt": "2023-08-10T02:57:47.652Z",
  "devdoc": {
    "details": "A simple decentralized lottery smart contract.",
    "kind": "dev",
    "methods": {
      "constructor": {
        "details": "Constructor initializes the contract with the contract owner and sets the initial lottery ID."
      },
      "enter()": {
        "details": "Enter the lottery by sending a minimum value of 0.01 ether."
      },
      "getBalance()": {
        "details": "Get the balance of the contract in ether.",
        "returns": {
          "_0": "The balance of the contract."
        }
      },
      "getPlayers()": {
        "details": "Get the list of players who entered the current lottery.",
        "returns": {
          "_0": "An array of addresses representing the players."
        }
      },
      "getRandomNumber()": {
        "details": "Generate a pseudo-random number based on the owner's address and current timestamp.",
        "returns": {
          "_0": "A pseudo-random number."
        }
      },
      "getWinnerByLottery(uint256)": {
        "details": "Get the winner's address for a specific lottery ID.",
        "params": {
          "lottery": "The lottery ID to query."
        },
        "returns": {
          "_0": "The winner's address for the given lottery."
        }
      },
      "pickWinner()": {
        "details": "Pick a winner from the list of players and transfer the contract's balance to them. Only the contract owner can call this function."
      }
    },
    "title": "Lottery",
    "version": 1
  },
  "userdoc": {
    "kind": "user",
    "methods": {},
    "version": 1
  }
}